{
  "_format": "hh-sol-artifact-1",
  "contractName": "RaffleDegen",
  "sourceName": "contracts/RaffleDegen.sol",
  "abi": [
    {
      "inputs": [
        {
          "internalType": "address",
          "name": "_degenToken",
          "type": "address"
        }
      ],
      "stateMutability": "nonpayable",
      "type": "constructor"
    },
    {
      "anonymous": false,
      "inputs": [
        {
          "indexed": true,
          "internalType": "address",
          "name": "previousOwner",
          "type": "address"
        },
        {
          "indexed": true,
          "internalType": "address",
          "name": "newOwner",
          "type": "address"
        }
      ],
      "name": "OwnershipTransferred",
      "type": "event"
    },
    {
      "anonymous": false,
      "inputs": [
        {
          "indexed": true,
          "internalType": "address",
          "name": "winner",
          "type": "address"
        },
        {
          "indexed": false,
          "internalType": "uint256",
          "name": "amount",
          "type": "uint256"
        }
      ],
      "name": "RaffleDrawn",
      "type": "event"
    },
    {
      "anonymous": false,
      "inputs": [
        {
          "indexed": true,
          "internalType": "address",
          "name": "buyer",
          "type": "address"
        },
        {
          "indexed": false,
          "internalType": "uint256",
          "name": "amount",
          "type": "uint256"
        }
      ],
      "name": "TicketPurchased",
      "type": "event"
    },
    {
      "anonymous": false,
      "inputs": [
        {
          "indexed": false,
          "internalType": "uint256",
          "name": "amount",
          "type": "uint256"
        }
      ],
      "name": "TokensBurned",
      "type": "event"
    },
    {
      "inputs": [],
      "name": "BURN_PERCENTAGE",
      "outputs": [
        {
          "internalType": "uint256",
          "name": "",
          "type": "uint256"
        }
      ],
      "stateMutability": "view",
      "type": "function"
    },
    {
      "inputs": [],
      "name": "POOL_PERCENTAGE",
      "outputs": [
        {
          "internalType": "uint256",
          "name": "",
          "type": "uint256"
        }
      ],
      "stateMutability": "view",
      "type": "function"
    },
    {
      "inputs": [],
      "name": "TICKET_PRICE",
      "outputs": [
        {
          "internalType": "uint256",
          "name": "",
          "type": "uint256"
        }
      ],
      "stateMutability": "view",
      "type": "function"
    },
    {
      "inputs": [
        {
          "internalType": "uint256",
          "name": "_amount",
          "type": "uint256"
        }
      ],
      "name": "buyTickets",
      "outputs": [],
      "stateMutability": "nonpayable",
      "type": "function"
    },
    {
      "inputs": [],
      "name": "degenToken",
      "outputs": [
        {
          "internalType": "contract IERC20",
          "name": "",
          "type": "address"
        }
      ],
      "stateMutability": "view",
      "type": "function"
    },
    {
      "inputs": [],
      "name": "drawRaffle",
      "outputs": [],
      "stateMutability": "nonpayable",
      "type": "function"
    },
    {
      "inputs": [],
      "name": "getTotalTickets",
      "outputs": [
        {
          "internalType": "uint256",
          "name": "",
          "type": "uint256"
        }
      ],
      "stateMutability": "view",
      "type": "function"
    },
    {
      "inputs": [
        {
          "internalType": "address",
          "name": "_user",
          "type": "address"
        }
      ],
      "name": "getUserTickets",
      "outputs": [
        {
          "internalType": "uint256",
          "name": "",
          "type": "uint256"
        }
      ],
      "stateMutability": "view",
      "type": "function"
    },
    {
      "inputs": [],
      "name": "owner",
      "outputs": [
        {
          "internalType": "address",
          "name": "",
          "type": "address"
        }
      ],
      "stateMutability": "view",
      "type": "function"
    },
    {
      "inputs": [
        {
          "internalType": "uint256",
          "name": "",
          "type": "uint256"
        }
      ],
      "name": "participants",
      "outputs": [
        {
          "internalType": "address",
          "name": "",
          "type": "address"
        }
      ],
      "stateMutability": "view",
      "type": "function"
    },
    {
      "inputs": [],
      "name": "renounceOwnership",
      "outputs": [],
      "stateMutability": "nonpayable",
      "type": "function"
    },
    {
      "inputs": [],
      "name": "totalTickets",
      "outputs": [
        {
          "internalType": "uint256",
          "name": "",
          "type": "uint256"
        }
      ],
      "stateMutability": "view",
      "type": "function"
    },
    {
      "inputs": [
        {
          "internalType": "address",
          "name": "newOwner",
          "type": "address"
        }
      ],
      "name": "transferOwnership",
      "outputs": [],
      "stateMutability": "nonpayable",
      "type": "function"
    },
    {
      "inputs": [
        {
          "internalType": "address",
          "name": "",
          "type": "address"
        }
      ],
      "name": "userTickets",
      "outputs": [
        {
          "internalType": "uint256",
          "name": "",
          "type": "uint256"
        }
      ],
      "stateMutability": "view",
      "type": "function"
    }
  ],
  "bytecode": "0x60806040523480156200001157600080fd5b506040516200176d3803806200176d8339818101604052810190620000379190620001dc565b620000576200004b620000a660201b60201c565b620000ae60201b60201c565b6001808190555080600260006101000a81548173ffffffffffffffffffffffffffffffffffffffff021916908373ffffffffffffffffffffffffffffffffffffffff160217905550506200020e565b600033905090565b60008060009054906101000a900473ffffffffffffffffffffffffffffffffffffffff169050816000806101000a81548173ffffffffffffffffffffffffffffffffffffffff021916908373ffffffffffffffffffffffffffffffffffffffff1602179055508173ffffffffffffffffffffffffffffffffffffffff168173ffffffffffffffffffffffffffffffffffffffff167f8be0079c531659141344cd1fd0a4f28419497f9722a3daafe3b4186f6b6457e060405160405180910390a35050565b600080fd5b600073ffffffffffffffffffffffffffffffffffffffff82169050919050565b6000620001a48262000177565b9050919050565b620001b68162000197565b8114620001c257600080fd5b50565b600081519050620001d681620001ab565b92915050565b600060208284031215620001f557620001f462000172565b5b60006200020584828501620001c5565b91505092915050565b61154f806200021e6000396000f3fe608060405234801561001057600080fd5b50600436106100ea5760003560e01c8063715018a61161008c5780639649b910116100665780639649b91014610227578063d53efa9d14610245578063dd11247e14610263578063f2fde38b14610281576100ea565b8063715018a6146101cf57806380017f4e146101d95780638da5cb5b14610209576100ea565b80632275aea9116100c85780632275aea91461015b5780632f3666371461016557806335c1d3491461018157806339e5f4ff146101b1576100ea565b80630484a22f146100ef57806306e8337f1461011f5780631a95f15f1461013d575b600080fd5b61010960048036038101906101049190610d23565b61029d565b6040516101169190610d69565b60405180910390f35b6101276102e6565b6040516101349190610d69565b60405180910390f35b6101456102f0565b6040516101529190610d69565b60405180910390f35b6101636102fc565b005b61017f600480360381019061017a9190610db0565b610704565b005b61019b60048036038101906101969190610db0565b610993565b6040516101a89190610dec565b60405180910390f35b6101b96109d2565b6040516101c69190610d69565b60405180910390f35b6101d76109d7565b005b6101f360048036038101906101ee9190610d23565b6109eb565b6040516102009190610d69565b60405180910390f35b610211610a03565b60405161021e9190610dec565b60405180910390f35b61022f610a2c565b60405161023c9190610d69565b60405180910390f35b61024d610a31565b60405161025a9190610e66565b60405180910390f35b61026b610a57565b6040516102789190610d69565b60405180910390f35b61029b60048036038101906102969190610d23565b610a5d565b005b6000600460008373ffffffffffffffffffffffffffffffffffffffff1673ffffffffffffffffffffffffffffffffffffffff168152602001908152602001600020549050919050565b6000600354905090565b678ac7230489e8000081565b610304610ae0565b600060035411610349576040517f08c379a000000000000000000000000000000000000000000000000000000000815260040161034090610ede565b60405180910390fd5b6000600260009054906101000a900473ffffffffffffffffffffffffffffffffffffffff1673ffffffffffffffffffffffffffffffffffffffff166370a08231306040518263ffffffff1660e01b81526004016103a69190610dec565b602060405180830381865afa1580156103c3573d6000803e3d6000fd5b505050506040513d601f19601f820116820180604052508101906103e79190610f13565b9050600060646046836103fa9190610f6f565b6104049190610fe0565b905060006064601e846104179190610f6f565b6104219190610fe0565b90506000600354424460405160200161043b929190611032565b6040516020818303038152906040528051906020012060001c61045e919061105e565b90506000600582815481106104765761047561108f565b5b9060005260206000200160009054906101000a900473ffffffffffffffffffffffffffffffffffffffff169050600260009054906101000a900473ffffffffffffffffffffffffffffffffffffffff1673ffffffffffffffffffffffffffffffffffffffff1663a9059cbb82866040518363ffffffff1660e01b81526004016105009291906110be565b6020604051808303816000875af115801561051f573d6000803e3d6000fd5b505050506040513d601f19601f82011682018060405250810190610543919061111f565b610582576040517f08c379a000000000000000000000000000000000000000000000000000000000815260040161057990611198565b60405180910390fd5b600260009054906101000a900473ffffffffffffffffffffffffffffffffffffffff1673ffffffffffffffffffffffffffffffffffffffff1663a9059cbb6000856040518363ffffffff1660e01b81526004016105e09291906110be565b6020604051808303816000875af11580156105ff573d6000803e3d6000fd5b505050506040513d601f19601f82011682018060405250810190610623919061111f565b610662576040517f08c379a000000000000000000000000000000000000000000000000000000000815260040161065990611204565b60405180910390fd5b8073ffffffffffffffffffffffffffffffffffffffff167fbf66bfe545e8176b64a984c070df99249e89543392ea18cbb8cc0ea82bbe8af2856040516106a89190610d69565b60405180910390a27f6ef4855b666dcc7884561072e4358b28dfe01feb1b7f4dcebc00e62d50394ac7836040516106df9190610d69565b60405180910390a1600560006106f59190610c82565b60006003819055505050505050565b61070c610b5e565b6000811161074f576040517f08c379a000000000000000000000000000000000000000000000000000000000815260040161074690611270565b60405180910390fd5b6000678ac7230489e80000826107659190610f6f565b9050600260009054906101000a900473ffffffffffffffffffffffffffffffffffffffff1673ffffffffffffffffffffffffffffffffffffffff166323b872dd3330846040518463ffffffff1660e01b81526004016107c693929190611290565b6020604051808303816000875af11580156107e5573d6000803e3d6000fd5b505050506040513d601f19601f82011682018060405250810190610809919061111f565b610848576040517f08c379a000000000000000000000000000000000000000000000000000000000815260040161083f90611313565b60405180910390fd5b81600460003373ffffffffffffffffffffffffffffffffffffffff1673ffffffffffffffffffffffffffffffffffffffff16815260200190815260200160002060008282546108979190611333565b9250508190555081600360008282546108b09190611333565b9250508190555060005b82811015610938576005339080600181540180825580915050600190039060005260206000200160009091909190916101000a81548173ffffffffffffffffffffffffffffffffffffffff021916908373ffffffffffffffffffffffffffffffffffffffff160217905550808061093090611367565b9150506108ba565b503373ffffffffffffffffffffffffffffffffffffffff167f0668f5b446eb814fe35b3206f43f14bd8567ba04ddaf7a3ee56516929ab22ccb8360405161097f9190610d69565b60405180910390a250610990610bad565b50565b600581815481106109a357600080fd5b906000526020600020016000915054906101000a900473ffffffffffffffffffffffffffffffffffffffff1681565b604681565b6109df610ae0565b6109e96000610bb6565b565b60046020528060005260406000206000915090505481565b60008060009054906101000a900473ffffffffffffffffffffffffffffffffffffffff16905090565b601e81565b600260009054906101000a900473ffffffffffffffffffffffffffffffffffffffff1681565b60035481565b610a65610ae0565b600073ffffffffffffffffffffffffffffffffffffffff168173ffffffffffffffffffffffffffffffffffffffff1603610ad4576040517f08c379a0000000000000000000000000000000000000000000000000000000008152600401610acb90611421565b60405180910390fd5b610add81610bb6565b50565b610ae8610c7a565b73ffffffffffffffffffffffffffffffffffffffff16610b06610a03565b73ffffffffffffffffffffffffffffffffffffffff1614610b5c576040517f08c379a0000000000000000000000000000000000000000000000000000000008152600401610b539061148d565b60405180910390fd5b565b600260015403610ba3576040517f08c379a0000000000000000000000000000000000000000000000000000000008152600401610b9a906114f9565b60405180910390fd5b6002600181905550565b60018081905550565b60008060009054906101000a900473ffffffffffffffffffffffffffffffffffffffff169050816000806101000a81548173ffffffffffffffffffffffffffffffffffffffff021916908373ffffffffffffffffffffffffffffffffffffffff1602179055508173ffffffffffffffffffffffffffffffffffffffff168173ffffffffffffffffffffffffffffffffffffffff167f8be0079c531659141344cd1fd0a4f28419497f9722a3daafe3b4186f6b6457e060405160405180910390a35050565b600033905090565b5080546000825590600052602060002090810190610ca09190610ca3565b50565b5b80821115610cbc576000816000905550600101610ca4565b5090565b600080fd5b600073ffffffffffffffffffffffffffffffffffffffff82169050919050565b6000610cf082610cc5565b9050919050565b610d0081610ce5565b8114610d0b57600080fd5b50565b600081359050610d1d81610cf7565b92915050565b600060208284031215610d3957610d38610cc0565b5b6000610d4784828501610d0e565b91505092915050565b6000819050919050565b610d6381610d50565b82525050565b6000602082019050610d7e6000830184610d5a565b92915050565b610d8d81610d50565b8114610d9857600080fd5b50565b600081359050610daa81610d84565b92915050565b600060208284031215610dc657610dc5610cc0565b5b6000610dd484828501610d9b565b91505092915050565b610de681610ce5565b82525050565b6000602082019050610e016000830184610ddd565b92915050565b6000819050919050565b6000610e2c610e27610e2284610cc5565b610e07565b610cc5565b9050919050565b6000610e3e82610e11565b9050919050565b6000610e5082610e33565b9050919050565b610e6081610e45565b82525050565b6000602082019050610e7b6000830184610e57565b92915050565b600082825260208201905092915050565b7f4e6f207469636b65747320736f6c640000000000000000000000000000000000600082015250565b6000610ec8600f83610e81565b9150610ed382610e92565b602082019050919050565b60006020820190508181036000830152610ef781610ebb565b9050919050565b600081519050610f0d81610d84565b92915050565b600060208284031215610f2957610f28610cc0565b5b6000610f3784828501610efe565b91505092915050565b7f4e487b7100000000000000000000000000000000000000000000000000000000600052601160045260246000fd5b6000610f7a82610d50565b9150610f8583610d50565b9250828202610f9381610d50565b91508282048414831517610faa57610fa9610f40565b5b5092915050565b7f4e487b7100000000000000000000000000000000000000000000000000000000600052601260045260246000fd5b6000610feb82610d50565b9150610ff683610d50565b92508261100657611005610fb1565b5b828204905092915050565b6000819050919050565b61102c61102782610d50565b611011565b82525050565b600061103e828561101b565b60208201915061104e828461101b565b6020820191508190509392505050565b600061106982610d50565b915061107483610d50565b92508261108457611083610fb1565b5b828206905092915050565b7f4e487b7100000000000000000000000000000000000000000000000000000000600052603260045260246000fd5b60006040820190506110d36000830185610ddd565b6110e06020830184610d5a565b9392505050565b60008115159050919050565b6110fc816110e7565b811461110757600080fd5b50565b600081519050611119816110f3565b92915050565b60006020828403121561113557611134610cc0565b5b60006111438482850161110a565b91505092915050565b7f5072697a65207472616e73666572206661696c65640000000000000000000000600082015250565b6000611182601583610e81565b915061118d8261114c565b602082019050919050565b600060208201905081810360008301526111b181611175565b9050919050565b7f4275726e207472616e73666572206661696c6564000000000000000000000000600082015250565b60006111ee601483610e81565b91506111f9826111b8565b602082019050919050565b6000602082019050818103600083015261121d816111e1565b9050919050565b7f416d6f756e74206d7573742062652067726561746572207468616e2030000000600082015250565b600061125a601d83610e81565b915061126582611224565b602082019050919050565b600060208201905081810360008301526112898161124d565b9050919050565b60006060820190506112a56000830186610ddd565b6112b26020830185610ddd565b6112bf6040830184610d5a565b949350505050565b7f5472616e73666572206661696c65640000000000000000000000000000000000600082015250565b60006112fd600f83610e81565b9150611308826112c7565b602082019050919050565b6000602082019050818103600083015261132c816112f0565b9050919050565b600061133e82610d50565b915061134983610d50565b925082820190508082111561136157611360610f40565b5b92915050565b600061137282610d50565b91507fffffffffffffffffffffffffffffffffffffffffffffffffffffffffffffffff82036113a4576113a3610f40565b5b600182019050919050565b7f4f776e61626c653a206e6577206f776e657220697320746865207a65726f206160008201527f6464726573730000000000000000000000000000000000000000000000000000602082015250565b600061140b602683610e81565b9150611416826113af565b604082019050919050565b6000602082019050818103600083015261143a816113fe565b9050919050565b7f4f776e61626c653a2063616c6c6572206973206e6f7420746865206f776e6572600082015250565b6000611477602083610e81565b915061148282611441565b602082019050919050565b600060208201905081810360008301526114a68161146a565b9050919050565b7f5265656e7472616e637947756172643a207265656e7472616e742063616c6c00600082015250565b60006114e3601f83610e81565b91506114ee826114ad565b602082019050919050565b60006020820190508181036000830152611512816114d6565b905091905056fea2646970667358221220696a00b05dbde34f4ca2e75815f293847581f7d3c1c5384e1d72933c2024bd5464736f6c63430008140033",
  "linkReferences": {},
  "deployedLinkReferences": {}
}